:020000040800F2
:10000000E0D70020A50200083FB40108599E01086E
:100010003DB40108BD47010803E3010800000000EA
:10002000000000000000000000000000E1010008E6
:10003000114B0108000000003D020008FDC301084B
:10004000BF020008BF020008BF020008BF0200088C
:10005000BF020008BF020008BF020008BF0200087C
:10006000BF020008BF020008BF020008BF0200086C
:10007000BF020008BF020008BF020008BF0200085C
:10008000BF020008BF020008BF020008BF0200084C
:10009000BF020008BF020008BF020008BF0200083C
:1000A000BF020008BF020008BF020008BF0200082C
:1000B000BF0200085DC50108BF020008BF020008BA
:1000C000BF020008BF020008BF020008BF0200080C
:1000D000BF020008BF020008BF020008BF020008FC
:1000E000BF020008BF020008BF020008BF020008EC
:1000F000BF020008BF020008BF020008BF020008DC
:10010000BF02000829B50108BF020008BF020008AD
:10011000BF020008BF02000869C50108BF0200084D
:10012000BF020008BF020008BF0200080D4A010814
:10013000BF020008BF020008BF020008BF0200089B
:10014000BF020008BF020008BF02000841B4010856
:10015000BF020008194A0108BF020008BF020008D8
:10016000BF020008BF020008BF020008BF0200086B
:10017000BF020008BF020008BF0200080000000024
:10018000BF020008BF020008BF020008BF0200084B
:10019000BF020008BF020008BF020008BF0200083B
:1001A000B5A70108BF020008CD490108BF02000839
:1001B000BF020008BF020008BF020008BF0200081B
:1001C000BF020008BF020008DFF810D000F08EFA6E
:1001D0000048004775000208AFF30080E0D7002018
:1001E0002D4B19680868B0E8F04F80F30988BFF319
:1001F0006F8F4FF0000080F31188704700000000FF
:1002000008480068006880F308884FF0000080F319
:10021000148862B661B6BFF34F8FBFF36F8F00DFF4
:1002200000BF00BF08ED00E0DFF80C00016841F4FA
:1002300070010160704700BF88ED00E0EFF30980B6
:10024000BFF36F8F144B1A681EF0100F08BF20ED1C
:10025000108A20E9F04F106009B44FF0500072B6D8
:1002600080F31188BFF34F8FBFF36F8F62B620F01A
:10027000E1FF4FF0000080F3118809BC196808689D
:10028000B0E8F04F1EF0100F08BFB0EC108A80F3FA
:100290000988BFF36F8F7047A4000020EFF305803B
:1002A000704700000648804706480047FEE7FEE723
:1002B000FEE7FEE7FEE7FEE7FEE7FEE7FEE7FEE716
:1002C00009C50108C90100082DE9F05F05460020B5
:1002D00092469B4688460646814640241BE02846B7
:1002E00041464746224600F0C0F853465A46C01AD7
:1002F000914110D311461846224600F0A7F82D1A56
:1003000067EB01084F4622460120002100F09EF8CD
:1003100017EB00094E41201EA4F10104DFDC484622
:1003200031462A464346BDE8F09F10B5441A0346BD
:10033000944209D28418114403E011F8013D04F8F5
:10034000013D521EF9D210BD40EA0104A40703D0BA
:1003500009E010C9121F10C3042AFAD203E011F8F1
:10036000014B03F8014B521EF9D210BDD2B201E08D
:1003700000F8012B491EFBD270470022F6E710B5AA
:1003800013460A4604461946FFF7F0FF204610BD03
:10039000421E12F8013F002BFBD111F8013B02F87D
:1003A000013B002BF9D17047421C10F8011B0029BA
:1003B000FBD1801A704730B504460020034600E0A8
:1003C0005B1C934203D2E05CCD5C401BF8D030BD97
:1003D000034611F8012B00F8012B002AF9D1184629
:1003E000704770B5C1F30A5201F000450024C1F313
:1003F000130140F2FF3341F480119A4201DA0020E8
:1004000070BD40F233439A42A2F2334203DC5242BF
:1004100000F02BF800E090402C43F1D0404270BD3A
:1004200030B50B46014600202022012409E021FAC4
:1004300002F59D4205D303FA02F5491B04FA02F5C1
:100440002844151EA2F10102F1DC30BD202A04DB94
:10045000203A00FA02F1002070479140C2F12003D7
:1004600020FA03F3194390407047202A04DB203A16
:1004700021FA02F00021704721FA02F3D040C2F1C4
:100480002002914008431946704700000FB4002332
:1004900000B589B00CA900910B996FF00042CB60B8
:1004A0001E4B06931E4B07930423CDE901321D4AD0
:1004B000089202466B46002000F0C4F909B05DF8CE
:1004C00014FB70B586B006464FF0FF300091CDE9C1
:1004D0000101002015460C4604903246694604A8E6
:1004E000FFF7D4FF02460498211825B108B1084649
:1004F00000E020462860049800280DD0002A02DD84
:100500000098884208D0081B0094CDE901043246C7
:10051000694604A8FFF7BAFF06B070BD7D0A00085F
:100520009B0A0008110700082DE9FE4F81EA030429
:1005300004F0004421F0004100944FF0000B23F040
:10054000004350EA01045ED052EA03045BD0C3F3D7
:100550000A54C1F30A552C44A4F2F3340194A0FBCD
:100560000254C1F3130141F48011C3F3130343F4A4
:10057000801301FB024400FB034E840A970A44EAFD
:10058000815447EA8357A4FB076802958D0A05FB4F
:1005900007854FEA932C04FB0C542705029D4FEA74
:1005A000065847EA1637B5EB08056EEB070C870EC1
:1005B000920E47EA811742EA8312A7FB0201B6EBCB
:1005C0000B0164EB00042B0D43EA0C335E1844EB83
:1005D0001C50DA465146E7FB0201C5F313044FEA0B
:1005E0000B3343EA14534FEA0432019C43EA0603F7
:1005F000A4F10C040294009CCDE900B400F06DFA63
:1006000003B0BDE8F08F00200146F9E72DE9F04D79
:1006100081EA030404F0004B21F0004514464FF03A
:10062000000A23F0004150EA050220D054EA0102FA
:100630001DD0C5F30A570246C5F31303C1F31300D7
:10064000C1F30A5640F4801543F48013A7EB060863
:10065000101BD64608F2FD3873EB050002D308F1F3
:10066000010801E092185B41B8F1000F03DA0020A5
:100670000146BDE8F08D00204FF480110646844607
:100680000EE0171B73EB050705D3121B63EB050385
:1006900006434CEA010C49084FEA300092185B41CE
:1006A00050EA0107EDD152EA030012D082EA0400B9
:1006B00083EA0501084305D0101BAB4106D2012295
:1006C000002306E000224FF0004302E06FF0010239
:1006D00053101AEB06004CEB085110EB0A0041EBEB
:1006E0000B01BDE8F04D00F0E9B90000064C074DE4
:1006F00006E0E06840F0010394E8070098471034F2
:10070000AC42F6D3FFF764FD247F0208447F020861
:10071000C0B24FF4F05100F02FBA00002DE9FF4FA6
:10072000087883B09946FF2805D0491C2D2804D0AD
:100730000024002008E000200BE00124F9E700EB92
:10074000800003EB4000491C0B78FF2BF7D104B16C
:10075000404200230293147819461D462D2C01D0E7
:100760002B2C04D1521C2D2C13D000240294AA4609
:100770001478FF2C0FD00A25A3FB057801FB058117
:100780004FF0000C03FB0C11521CE3194AEB010162
:10079000EEE70124EAE7814453EA010002D019F5AB
:1007A000C87F06DA03980021C0E9001107B0BDE850
:1007B000F08F0025AE4E2F46DFF8B882184600F0C5
:1007C000EFF9CDE90001B9F1000002DAC9F1000446
:1007D00000E004460023A74A1AEB030B42EB045A3D
:1007E00012E0E00707D02A46334638464146FFF775
:1007F0009BFE074688462A46334610461946FFF7B1
:1008000093FE05460E466410002CEAD1DDE9000196
:10081000B9F1000F5A46534606DAFFF7F7FE3A469B
:100820004346FFF7F3FE05E0FFF77EFE3A464346F8
:10083000FFF77AFE029A0AB181F00041039AC2E9F9
:100840000001B3E72DE9FF4F1F468DB0D7E9014600
:100850004FF0FF382E2045464FF000090B90B96944
:100860006D1C0E988847396A824688470028F6D161
:10087000BAF1FF3F0AD024F4D064002E11DDBAF1A2
:100880002B0F08D0BAF12D0F0BD102E0404611B06A
:100890008DE744F48064B9696D1C0E9888478246E0
:1008A000761E6946600501D52D2000E02B208DF8CD
:1008B000000001F1010B0DF1200809E0B9696D1C80
:1008C0000E98884782460F9844F40074761E05609F
:1008D000002E02DDBAF1300FF0D00B998A453ED1DF
:1008E00044F0800406E00F99681CA9F1010944F462
:1008F00000740860B9696D1C761E0E9888478246A0
:100900003028F0D02BE00B998A4505D1200603D47E
:1009100044F08004761E18E050461DF0E7FF08B34F
:100920000DF11301761E44F400748B4508D2AAF130
:1009300030000BF8010B200607D5A9F1010003E0F8
:10094000200602D409F101008146A00502D50F99C5
:10095000681C0860B9696D1C0E9888478246002E95
:10096000D1DC53E0002E51DDBAF1650F02D0BAF1AF
:10097000450F4BD1A00549D5B9696D1C24F44074CD
:10098000761E0E9888478246002E0CDD2B2804D058
:10099000BAF12D0F07D144F48074B9696D1C0E981B
:1009A00088478246761EE00501D52D2100E02B21E7
:1009B00008F8011BCDF82C8021E00DF12901761EED
:1009C00044F4007488450CD2AAF1300010F0FF0006
:1009D00088F8000002D10B99884509D908F101086F
:1009E00006E0E00501D5244801E042F20F7081469F
:1009F000B9696D1C0E98884782460F980560002ED5
:100A000004DD50461DF072FF0028D6D1F9690E981A
:100A10008847FF208BF8000088F80000002006902F
:100A200007904B466A4608A906A8FFF777FEA0057F
:100A300002D46FF001002AE714F0240F0AD0E00777
:100A400014D1DDE906123868031D3B600068C0E977
:100A500000120BE0DDE9060100F0AEF80146E00708
:100A600004D13868021D3A600068016028460EE72C
:100A7000000014400000F03FF1D8FFFF426842B18F
:100A8000016811F8013B23B1521EC0E9001218465B
:100A900070470121C160881E704742685AB1C3681F
:100AA000016843B983688B4205D0491E521CC0E9D6
:100AB0000012002070474FF0FF30704710B5141E31
:100AC00073F1000408DA401C41F1000192185B4107
:100AD0001A4301D120F0010010BD2DE9F04D9246DE
:100AE0009B4611B1B1FA81F202E0B0FA80F22032F5
:100AF0009046FFF7ABFC04460F4640EA0A0041EA85
:100B00000B0153465A46084313D0114653EA0100DD
:100B100019D0C8F140025046FFF7A7FC05460E4623
:100B2000504659464246FFF791FC084305D0012044
:100B300004E020463946BDE8F08D0020054346EA32
:100B4000E0762C4337430A986305E40AA0EB0800DB
:100B50000022FD0A44EA47540A3002D5002001462B
:100B6000E9E7010510196941DDE908450019694106
:100B7000BDE8F04DA2E700007F2801D9002208E07F
:100B8000064A02EB5002C007127800D1120902F0A7
:100B90000F020120904008407047000054220208D4
:100BA0000EB540F2334202920022CDE900221346F4
:100BB000FFF793FF03B000BD01F0004330B421F014
:100BC000004150EA010206D00A0DA2F56072C1F39D
:100BD0001301002A02DC30BC00207047440F44EAB5
:100BE000C104C100E01830BC00EBC250AFF300807C
:100BF0000029A8BF7047401C490008BF20F0010031
:100C0000704710B4B0FA80FC00FA0CF050EA01040E
:100C100004BF10BC704749B1CCF1200421FA04F4A0
:100C200011FA0CF118BF012121430843A3EB0C0179
:100C3000CB1D4FEA00614FEA102042BF002010BCDC
:100C4000704700EBC35010440029A4BF10BC70478C
:100C5000401C490008BF20F0010010BC704770B56F
:100C60008C1810F8015B15F0070301D110F8013B57
:100C70002A1106D110F8012B03E010F8016B01F8DE
:100C8000016B5B1EF9D12B0705D40023521E0DD436
:100C900001F8013BFAE710F8013BCB1A921C03E084
:100CA00013F8015B01F8015B521EF9D5A142D8D3BC
:100CB000002070BD70B5456882B0044601462846E4
:100CC00009F026F868B123680F2B59D00BDD282BCB
:100CD00045D0B3F5107F3CD0112B49D0204609F008
:100CE000D9FC02B070BD0B2B20D00E2BF6D1E368DF
:100CF0001A6859680D2A53D0202A31D10029284674
:100D00004FF480717DDD09F0F3F8284601F008FD0D
:100D100002AB846A43F8040D184601F065FEA20791
:100D2000DFD5284601210BF04BF8DAE7284602AD63
:100D300001F0F6FC03466830019301F0CFFA55F854
:100D4000040D03216C3001F0EFFA284601F04CFE4F
:100D5000C4E7324B214628461B689847C1E7E36841
:100D6000002BBBD128464FF4807108F0B5FFB5E7E2
:100D70002B4B1B68002BB4D0214628469847B0E780
:100D8000284601F0CDFC034602A840F8043D5B6E06
:100D90001C6801F029FE002CA3D02846A047A0E73C
:100DA0000029DDDD4FF48071284609F0A1F802AC7E
:100DB000284601F0B5FC866A44F8040D204601F08F
:100DC00013FEB10703D5012128460AF0F9FF4FF4BD
:100DD0008071284608F080FF284601F0A1FC0346F8
:100DE00020461E8E9C6A019301F0FEFD304605F000
:100DF000E3FCA3077FF575AF284602210AF0E0FF68
:100E00006FE708F069FF284601F08AFC034602A854
:100E10009C6A1E8E40F8043DE6E700BF9401002066
:100E2000B87400202DE9F04FB0F90A6087B0B0F92E
:100E30000C708B4685691644B0F90E801F44B0F9DA
:100E400010A00446B0F908904C3503F0E9FBDFF838
:100E5000CCC04FF0000E4246CDF800B039463046C7
:100E600003955346CDF808C0CDF804E009F016FB11
:100E7000804628B906F00EF8404607B0BDE8F08F6E
:100E800001F04EFC244F49460DF11809102205903F
:100E90003E1D09F031F959F804ED0FCE0EF134057D
:100EA0000FC50FCE0FC596E80F0085E80F007B6BCE
:100EB0004846CEF8643001F097FD7B6B40465B6896
:100EC000984705F0E7FF656803F0AAFB404601F08C
:100ED00027FC034604A89C6E0493059401F084FD4E
:100EE0002946484607F03CF90028C3D0059B9C42A0
:100EF00009D0404601F014FC059A034604A89A66FE
:100F0000049301F071FD40460AF0C2FB05F0C2FFF8
:100F1000404607B0BDE8F08F94010020B50C0008F2
:100F2000974A816843682DE9F041044688B052F839
:100F30002160122B40D8DFE803F0B03F3F3F3F0A6B
:100F4000973F3F3F3F3F3F3F3F3F3F3F4300F569B4
:100F5000002D40F0B580371F57F8040F05F0A8FBAF
:100F600004F1140120690EC928445B1B521B29445B
:100F7000013503F079F8022DEED162693169E36938
:100F80000191911CF76813442069A2695B10284401
:100F90000097521B02F062FFE1696269B0698B1E23
:100FA0001144A2690190491020697669521B0131F0
:100FB0002844009602F052FF002008B0BDE8F081FE
:100FC000006801F0ADFB876E0490002F00F0D08028
:100FD000A368B0F95C80002B00F0C880032B14BF1D
:100FE0000023022300EB8303406D08AC1D6C05F069
:100FF00077FB284605F05CFB06A803F091F9B28B5D
:10100000BDF8181006A8BDF81C301144BDF81A50E0
:101010009A1ABDF81E30ADF81810023554F8101D9C
:10102000023BADF81C20B1F96020B1F95E10ADF8BB
:101030001E30ADF81A5004F091FE204608AC01F0C5
:10104000D3FC022005F0A0FB384601F069FB06A99D
:10105000424644F80C0D02F0FFFD204601F0C4FCAE
:10106000002008B0BDE8F081006801F059FB049051
:1010700020680CF025F9B8B9049B5D6F05B9DD6EE9
:1010800004A801F0B1FC0023284621681A4602F0AA
:10109000D9FC002008B0BDE8F08100680BF020F911
:1010A000002008B0BDE8F081A368002B64D1049A49
:1010B000136F002B14BF6C23682313445D68DFE7B4
:1010C000B268B046C36900270392716882690291D1
:1010D00058F80409009561690190206906F0DEFB6B
:1010E00058F8040F05F0E4FAF369A2692169606910
:1010F000D21A1944384402F08BFFF369A2692169BE
:10110000E069D21A1944C01B02F082FFF369E26958
:1011100061692069D21A1944384402F0EDFFA069D0
:10112000F369E269C01B61690137D21A194402F000
:10113000E3FF022FD4D1B06805F0BAFAF169226951
:101140006569901CE3690A445B1A2944013A03F07B
:101150002BF8F169A0696569E369821E401A5B1A80
:101160002944013003F020F8F56906E7012339E747
:1011700004A801F039FC1FE7049BDD6E80E700BF87
:10118000887502082DE9F04F446805468BB020466B
:101190000CF096F829460646204608F0B9FD0028CE
:1011A00038D02B680F2B60D037DC0B2B4AD00E2B9E
:1011B00055D1002E53D0EB685A68002A4FDDD3F882
:1011C0000080A8F10903192B06D80121C34A01FAAE
:1011D00003F31A40002A42D1E4B103F021FA0AAE27
:1011E000204601F09DFA0346876D46F8180D3046FB
:1011F00093F854A0D3F83490DD6C01F0F5FB002F88
:1012000000F0E28041462046B84720460AF040FA06
:1012100005F040FE0BB0BDE8F08F40F21312934290
:1012200028D0B3F5107F1AD1EB68002B00F09A801C
:101230001A7A002A52D0002C41D1204601210AF00E
:10124000BFFD0CE020460AAC01F06AFA03463430D8
:1012500044F8043D01F042F8204601F0C5FB284661
:1012600009F018FA0BB0BDE8F08F2046012111F00B
:10127000F9FBCFE720460AAE0AF0D2FE204601F085
:101280004FFA034646F8040D304693F8562082F094
:10129000040283F8562001F0A7FB0021204611F03C
:1012A000E1FB204601F03CFA03460021D0F884001F
:1012B00009930AF081FE304601F096FBCFE71E68E5
:1012C00003F0AEF9204601F02BFA436B079053B9B7
:1012D00007A801F089FB05F0DDFDAEE720460221FD
:1012E0000AF06EFDBBE7184601F01AFA079B06905C
:1012F000986E05F0F5F98046204609F0A7FD0746EF
:10130000069803F06BF8079A8146136E03F0030307
:10131000012B00F0E781022B40F0DD813B1A013305
:1013200048BF0133A6EB6306069806F04FFD002E7A
:101330000746C0F2F881B14519DA204601F0F0F90C
:10134000436B0890002B40F0D38108A801F04CFBC0
:1013500006A801F049FB404605F0C2F920460AF014
:1013600097F9B5E7204603210AF02AFD77E7024600
:101370003146069806F0AAFC0646204601F0D0F950
:10138000436B0890002BE0D0184626EAE67601F081
:10139000C7F9099006F01AFD0899B1F9383091F8AB
:1013A0005470CA6C002F18BF013BB342A8BF33462C
:1013B0009842A8BF1846824200D0C864002309A8FA
:1013C0000B6501F011FBC0E7A8F10803162B00F232
:1013D000E680DFE813F0A000E400E400E400E400AD
:1013E000E400E400E400BC00850076004800E4006E
:1013F000E400E400E400E400E400E400E400E400CD
:1014000038001700204601F08BF903460AA85D6BEF
:1014100040F8083DDF6C01F0E7FA002D3FF4F5AE2F
:10142000284601F07DF939460646099005F008FC8A
:1014300005463046FEF7B8FF8542C0F0E28109A8B4
:1014400001F0D2FAE1E6204601F06AF9BAF1010FA3
:101450000346049040F08781002280F854203046F3
:1014600001F0C2FAD1E6B9F1000F3FF4CEAE484622
:1014700001F056F906462946099005F0E1FB0644BD
:10148000304605F089FB002305468DF82230ADF883
:101490002030013D05F0A0FB0746ADB2284605F01F
:1014A0009BFB8742CBD1294608A805F063FB08A91E
:1014B0003A463046FEF739FF052120460AF080FC07
:1014C000BDE7204601F02CF9436B0890002B40F05B
:1014D000A88108A801F088FA97E600BF130004036A
:1014E000B9F1000F3FF491AE484601F019F90646F4
:1014F0002946099005F0A4FB0644304605F04CFB54
:10150000002305468DF82230ADF82030013505F076
:1015100063FB0746C1E7002D3FF477AE204601F09C
:10152000FFF8436B0890002B40F0948108A801F06D
:101530005BFA204601F0F4F8034608A85D6BDF6C07
:10154000089301F051FA002D3FF45FAE68E72046A2
:1015500001F0E6F8436B0890002BBAD0184601F072
:10156000DFF8099006F032FC089A6B1EB2F93810C9
:1015700023EAE37392F85460D56C002E18BF01394A
:101580008B42A8BF0B469842A8BF1846002385424D
:10159000136518BFD06409A801F026FA99E7B8F1DD
:1015A0001F0F7FF732AEBAF1000F40F008812046DE
:1015B00001F0B6F8B0F9383081460590002B07DD10
:1015C000406B002840F06B8107469F4280F26381A8
:1015D0001FFA88F30DF128091E46019359F8143DAE
:1015E000DB6C4846039301F0FFF9304605F0F4FA4E
:1015F0008346204601F094F8436B0690002B40F0A0
:101600008F811E460AA80BEB060350F8102D0133FC
:10161000568F9E1B01F0E8F9002E40F37E81204694
:10162000103601F07DF80346B0F83A800AAFD3F8DF
:1016300034A0B04447F8080D384601F0D5F94146CA
:10164000504601F081F8029000283FF4DEADBAF177
:10165000000F00F0548109AE204601F061F8029AB3
:10166000034638460893A3F83A805A6301F0BCF960
:10167000204601F055F803464846D3F834800593D8
:1016800001F0B2F9404601F04BF880460399099009
:1016900005F0D6FA80444046FEF786FE4146421CDD
:1016A00008EB0B00FEF741FE0199404605F062FA97
:1016B000304601F099F9052120460AF081FB2046C9
:1016C00001F02EF8436B0890002B40F0F68038466E
:1016D00001F08AF999E5536ED16A5A1C0B681344DC
:1016E000F61A21E6536E3F1A0133FB1AF61A1BE66F
:1016F000184627EAE77701F013F8099006F066FB31
:101700000899B1F9383091F85460CA6C002E18BFAE
:10171000013BBB42A8BF3B469842A8BF1846824245
:101720007FF44BAE4AE6204600F0FAFF436B089088
:10173000002B3FF40AAE184600F0F2FF099006F0C5
:1017400045FB0899B1F9383091F85460CA6C002E05
:1017500018BF013B03EAE3739842A8BF18468242D0
:101760007FF42BAE2AE60122204683F8542000F0B5
:10177000D7FF436B0890F3B1184625EAE57500F0F2
:10178000CFFF099006F022FB089AB2F9383092F8A0
:101790005470D16C002F18BF013BAB42A8BF2B4641
:1017A0009842A8BF184600238142136518BFD06431
:1017B00009A801F019F908A801F016F94FE60AAFD7
:1017C000204600F0ADFF466B034647F8080D38464B
:1017D000D3F84C9001F008F9002E3FF4E8AE304603
:1017E00000F09EFF49460746099005F029FA064693
:1017F0003846FEF7D9FD86421CD309A801F0F4F85B
:10180000D5E63544284605F0D7F929182846FEF7CD
:10181000DFFD09A801F0E8F8052120460AF0D0FA1A
:10182000F3E4184600F07CFF099006F0CFFA089A1E
:101830006B1C9BE63E44304605F0BEF9311830463D
:10184000FEF7C6FD09A801F0CFF8052120460AF0F1
:10185000B7FAACE6184600F063FF099006F0B6FA56
:10186000089A6B1EB2F9381092F8546023EAE373B9
:10187000D56C002E18BF01398B42A8BF0B46984289
:10188000A8BF184600238542136518BFD06409A875
:1018900001F0AAF84AE605A801F0A6F8B5E40AAEF8
:1018A00000F03EFF46F8040D06F090FA0746304679
:1018B00001F09AF8B9F9383087E6184600F030FFA1
:1018C000099006F083FA08996B1C91F854E0B1F97D
:1018D000385023EAE373CA6CBEF1000F18BF013D14
:1018E000AB42A8BF2B469842A8BF1846002390429F
:1018F0000B6518BFC864304601F076F8E7E600F0E3
:101900000FFF0AAE0D4B514646F8040D42461B68C8
:101910009847304601F068F89EE609AE08AFA7E6A2
:1019200018460AAF00F0FCFE47F80C0DFEF73CFD30
:101930000646384601F058F864E600BF3002002041
:101940002DE9F04FB0F90C708BB0B0F90A608B46FE
:1019500085691F44B0F908301644B0F90EA004465A
:10196000B0F9109060350593D0F8148002F058FE5D
:10197000DFF83CE14FF4805CCDF800B039463046EA
:1019800003954B465246CDF808E0CDF804C008F068
:1019900085FD30B9002705F07DFA38460BB0BDE86B
:1019A000F08F074600F0BCFE05991022079008F062
:1019B000A3FB3D4E4FF0010CDDF81CE00FCE0EF105
:1019C00060050FC50FCED6F8009018F1010618BFBC
:1019D0000126B8F1000F0FC5C5F800908EF855C06C
:1019E0008EF888605BDD0FFA88F808EB0C050023A1
:1019F000AEF8388007A80AAEAEF83A30CEF83430E8
:101A000000F0F2FF384600F08BFE0346428FD3F819
:101A10003480154446F8080D304600F0E5FF2946AD
:101A2000404600F091FE8246A8B3B8F1000F23D0E3
:101A30000DF12409384600F073FE034630465D87F9
:101A4000C3F834A0089300F0CFFF05F023FA648AAE
:101A500002F0E6FD384600F063FE099018B1046616
:101A6000384609F015FE484600F0BEFF05F012FAB0
:101A700038460BB0BDE8F08F00F052FE0DF128099A
:101A80000A4B414649F8040D2A461B6898474846C8
:101A900000F0AAFFCEE7384608F048FE7AE70925AD
:101AA0004FF00808A3E700BFCC010020300200205F
:101AB0008511000800B9704770B5044682B00D4624
:101AC00002F0AEFD204602AE00F02AFE0346856617
:101AD000204646F8043D09F0DBFD304600F084FF67
:101AE00005F0D8F902B070BD00B97047AFF30080BF
:101AF0002DE9F04F04468BB00F4602F091FD0AAE7F
:101B0000204600F00DFE0246456B46F8180D3046A3
:101B1000B2F9388000F068FF002F00F0AA80002D95
:101B20007FD1A9463846454606F050F98045A8BF02
:101B300005463846294605F083F800F1010820469D
:101B400000F0EEFD436BC9EB080A0690002B59D15B
:101B50009946D144438F06A809F10109C3EB09094D
:101B600000F042FFB9F1000F25DD204609F1100910
:101B700000F0D6FD0346428F0DF1280AD3F834B0A9
:101B800091444AF8080D504600F02EFF4946584649
:101B900000F0DAFD019068B3BBF1000F56D020468B
:101BA00000F0BEFD019B02465046A2F83A905363F6
:101BB000089200F019FF204600F0B2FD0346406B8A
:101BC000049300F0ADFD324B4246394605901B6848
:101BD0009847059A0023904408F8013C049BB3F908
:101BE0003820DD64AA422AD005A800F0FDFE304668
:101BF00000F0FAFE204609F04BFD05F04BF90BB062
:101C0000BDE8F08F18460DF1280B00F089FD4BF868
:101C10000C0DFEF7C9FB8146584600F0E5FE06981C
:101C200097E728460AAD00F07BFD45F8140DFEF756
:101C3000BBFB00F10109284600F0D6FE72E793F8DD
:101C40005420012AD0D1013DDD64CDE700F068FDCC
:101C50000AABDFF840E0594643F8040D4A46DEF887
:101C600000B002930393D847029B184600F0BCFED5
:101C700095E7204600F054FD03463430049300F00D
:101C80002DFB049B30465F87DF6400F0ADFEB1E7BB
:101C90002C0200203002002000B9704730B5044605
:101CA00083B00D4602F0BCFC204600F039FD0190E7
:101CB00018B10566204609F0EBFC01A800F094FE7F
:101CC00005F0E8F803B030BD204B70B51E6802F097
:101CD000A7FC1F4C0025304607F0B0FC05F0DAF8F1
:101CE0001C4B1E6802F09CFC304607F0E1FC05F03E
:101CF000D1F802F095FC012223681A7605F0CAF8A3
:101D000002F08EFC23689D8505F0C4F802F088FC83
:101D100023685D8505F0BEF802F082FC284607F0D6
:101D2000F9FC05F0B7F80C4B1D6802F079FC23684C
:101D300005B1DD6105F0AEF802F072FC2368002207
:101D40009A76BDE8704005F0A5B800BF7C01002080
:101D5000800100207801002074010020014B83E8FD
:101D60000300704754730020014B83E80300704761
:101D70005C730020014B83E803007047647300200C
:101D8000704700BF704700BF2DE9F04F5C4E8DB02B
:101D90003368DA69B3F92250D469B4F80CB08345DA
:101DA00000F29780E1898142C0F093802168CBEBFB
:101DB000000B08914FF0FF310A91BBF1FF3F00F09B
:101DC000828092F81880A27CB3F92A10B3F924908B
:101DD00018FB02F3084607911F4694F810A007F07D
:101DE00099FCD6F800E008994346DEF838C0524620
:101DF000099007FB0B10DEF81CE00B9701270490FD
:101E00004946CDF814C0284694F812C00297CDF880
:101E10000CC09EF81BC0DFF8E8B0CDF804C09EF8F7
:101E20001AE0CDF800E006F0A1FD0A9F7B1C25D04A
:101E3000079941F0020007F06DFCDBF800100B9AE7
:101E400043460898D1F838C002FB0700D1F81CE0DF
:101E50000127CDF814C00490524694F812C04946A8
:101E600002972846CDF80CC09EF81BC0CDF804C0E0
:101E70009EF81AE0CDF800E006F078FD3368DFF850
:101E80008080DB695A7E1B7E9A4215D9079B022B04
:101E900012D083F0040007F03DFCD8F8003028464B
:101EA000DB691F7ED97E9A7E5B7E07FB01910AFB70
:101EB00002524B4406F062FF9DF8240007F02AFC12
:101EC0003368B3F92250627C15445D840DB0BDE8DF
:101ED000F08FA1680029F6D00F88B842F3D3B1F88B
:101EE00002E08645EFD3C01B4968676880B2089757
:101EF00001EB800731F920B0B7F902100A915CE7D5
:101F000080010020044B1B68DB69DB6909B11A7C86
:101F10000A60587C704700BF8001002002230B80BC
:101F2000704700BFC3699A898A4202D8DA898A4217
:101F300011D2986818B10388994201D200207047E5
:101F400042888A42FAD3C91A436833F82100C04351
:101F5000C0F3C03070470120704700BF2DE9F04F3B
:101F60003A4D89B02B68DA69B3F92A90D36943B145
:101F70001A88904202D35988814205D29B68002B6F
:101F8000F6D109B0BDE8F08F841AD3F80480484632
:101F900008EBC40696F802B007F0BCFB824628683E
:101FA00018F834204FF0010EC769D0F838C0B0F9E6
:101FB0002410B0F922003B7E0790CDF814C0706861
:101FC000CDF80CB00490CDF808E097F81BE0079826
:101FD000CDF804E0BF7E009706F0C8FC2B68DA69F4
:101FE000537E177EBB4223D9B9F1020F07931FD04E
:101FF00092F81BB002F098F9814602F05FF904F004
:1020000057FB124B18F834E01868079BC169B0F908
:102010002240CA7EB0F9241020460EFB02420BFB80
:1020200003130BFB071106F0A9FE484604F040FB22
:10203000504607F06FFB2B687178D8695A8C807E08
:1020400000FB01225A8409B0BDE8F08F8001002016
:10205000114B1B6870B4DD69EB6943B11A8890427B
:1020600002D35C88844205D29B68002BF6D11846C7
:1020700070BC7047821A5E68AC7E06EBC2035B7868
:1020800013FB04F00029F3D016F8323014FB03F3ED
:1020900070BC0B60704700BF8001002001230B80E3
:1020A000704700BFC06950B103888B4202D8438893
:1020B0008B4203D280680028F6D170470120704718
:1020C0002DE9F047244F3D68002D3FDD234EC5EB41
:1020D0004515DFF88C804FF0000A3468D8F800907E
:1020E00004EB85050C340C35A4F108037422494631
:1020F0001846FEF71AF9221F2063A06344F80CACBF
:102100006263E4607C34A542EED10024254603E0FE
:1021100082B13A68954213DA12F01EFE3368013537
:102120001A5919197C349042F2D10431C8F80010C0
:10213000BDE8F08708600431C8F80010BDE8F087FA
:1021400019460431C8F80010BDE8F087034BDFF8EA
:1021500010801968E9E700BF18020020D47500203C
:1021600080010020F8B5184F184B3846184E40F83B
:102170000C3F05F0E1FF3468C4EB4414A400204692
:1021800000F004F9134B224600211B683860984781
:102190004FF0FF33736012F0E5FD3368002B0FDD65
:1021A0000024254603E062B133689D4208DA12F04C
:1021B000D3FD3B6801351A5923447C349042F2D157
:1021C000F8BD1860F8BD00BFD4750020692901086A
:1021D000180200203002002000B9704710B50446F4
:1021E00002F01EFA20460BF05FFC044604F052FE9B
:1021F000204610BDF8B5054602F012FA25B90024B4
:1022000004F048FE2046F8BD02F00AFA28460BF01A
:102210004BFC044604F03EFE002CF0D0144E2A463F
:10222000144F0021F069736B013003EBC405F061BA
:1022300013F83400013003F834006D683B6805F191
:10224000080098472968726B12F83130012B01D9C8
:10225000F06930B9013B02F8313004F01BFE204632
:10226000F8BD0138013BF06102F83130F5E700BFFD
:10227000D07600203002002021F00301014B83E8DA
:10228000030070476C73002000B9704770B50D4CA7
:10229000054602F0C5F9EE00636B3344596848689F
:1022A0000BF054FA6368626B0021606A01331644D4
:1022B0006360706002F835106562BDE8704004F03C
:1022C000E9BD00BFD076002028B1034AD36B03607C
:1022D00003B15860D0637047D0760020F8B505464A
:1022E00002F09EF92C68B4B10E4E02F099F9E700A5
:1022F000736B3B44596848680BF028FA7368726B3B
:102300000020716A013317447360796002F8340069
:10231000746204F0BFFD00232B60BDE8F84004F0B8
:10232000B9BD00BFD076002000292BDD2DE9F04794
:1023300000258A46041F144FA94602F071F954F88B
:10234000046F0135B6B102F06BF97B6B4FEAC6083A
:102350004344596848680BF0F9F97B68796B7A6AED
:10236000013388447B60C8F8042001F836907E620F
:1023700004F090FDC4F8009004F08CFDAA45DCD177
:10238000BDE8F087704700BFD0760020F8B58B4ECF
:10239000044696F82830002B2FD00334356CF26BAE
:1023A00024F003040434A54238BF254662B152F834
:1023B000043C14469D4204D114E054F8043C9D4270
:1023C00010D02468002CF8D1F368B46B1C4454F886
:1023D000041C611A0B68002B68D14B689D426FDDAD
:1023E000002408E023680BB161685960616801B19D
:1023F0000B60A24256D02046F8BD714B01219A686D
:1024000086F8281058680AB982089A605A2710225C
:1024100020254FF0400E3762802732644FF48072DF
:10242000B5644FF400751968C6F850E04FF4806E3B
:10243000B7654FF4006732664FF48052B5664FF4CB
:102440000055A1F11403C6F870E0B7674FF4804E51
:10245000C6F880204FF40047C6F888504FF4803209
:102460004FF400350344C6F890E04FF4802EC6F8D0
:1024700098704FF40027C6F8A0200222C6F8A85092
:102480000125B1637363C6F8B0E03261F060C6F84D
:10249000B8705D60756275600BF058F90EF044FC21
:1024A00035637AE723682046F363F8BD002010F017
:1024B00087FE54F8041C611A0B68002B90D18CE73E
:1024C000581BD6F8B8703D4A041DBB420C4472D26A
:1024D000D2F8B070BB426CD2D2F8A870BB4266D2C0
:1024E000D2F8A070BB4260D2D2F898709F425AD9FD
:1024F000D2F89070BB4254D2D2F88870BB424ED210
:10250000D2F88070BB4248D2926F934243D2376F69
:102510002A4ABB423DD2976EBB4238D2176EBB42AD
:1025200033D2976DBB422ED2176DBB4229D2976C26
:10253000BB4224D2126C93420CD2F2687369521BD4
:102540002B44F260736110B944F8045C53E70BF05C
:10255000FDF8F9E700223768D1F808E0FF1ACB68E8
:102560003760BEF1000F01D0CEF8043013B1C3F8CC
:1025700000E0E2E706EBC202C2F844E0DDE7012238
:10258000E9E70222E7E70322E5E70422E3E7052281
:10259000E1E70622DFE70722DDE70822DBE7092281
:1025A000D9E70A22D7E70B22D5E70C22D3E70D2281
:1025B000D1E70E22CFE70F22CDE700BFD076002073
:1025C0006C730020F8B54A4C94F82830002B3DD0AD
:1025D000D4F8BC30464A3BBBD2F8B43023BBD2F867
:1025E000AC300BBBD2F8A430F3B9D2F89C30DBB9D5
:1025F000D2F89430C3B9D2F88C30ABB9D2F8843069
:1026000093B9D36F83B9536F73B9E36E63B9536EE4
:1026100053B9D36D43B9536D33B9D36C23B9536CEC
:1026200013B96FF00B00F8BD9B68002BF9D00022A6
:1026300001E09B6843B159681046914201D90A46AE
:1026400008469B68002BF4D10C38F8BD294B0121BA
:102650009A6884F8281058680AB982089A605A263D
:102660001022202540272662802622644FF48072A3
:10267000A5644FF40075196827654FF48067A66557
:102680004FF4006622664FF48052A5664FF4005561
:10269000A1F114032767A6674FF48047C4F8802090
:1026A0004FF40046C4F888504FF480324FF40035A0
:1026B0000344C4F890704FF48027C4F898604FF436
:1026C0000026C4F8A0200222C4F8A8500125A16366
:1026D00063632261E060C4F8B070C4F8B8605D6004
:1026E000656265600BF032F80EF01EFB25636FE744
:1026F000D07600206C73002030B1044B5B6B03EB91
:10270000C000436858680C38704700BFD07600207E
:10271000024A936901339361704700BFD07600206D
:10272000084AD169536B013110B4D16103EBC00485
:1027300013F83020013203F8302060685DF8044B54
:1027400008307047D076002009B9084670472DE957
:10275000F8438846064601F063FF40460BF0A4F9B3
:10276000054604F097FB002D66D0002E64D0344C53
:10277000F700636B3B445B685B68A3F10C0080452A
:10278000A8BF804601F04CFF636BE169424613F835
:10279000350003EBC508023103EB070C0130DFF80D
:1027A000A4E003F83500D8F80480E16113F836108E
:1027B00008F10800013103F83610DCF80490DEF867
:1027C000003009F108019847D8F80010636B13F83E
:1027D0003120012A03D9E06908B10138E061013AEA
:1027E00003F83120D9F8001013F83120012A06D956
:1027F000E069DFF84CE010B10138CEF81C00013A76
:1028000003F8312001F00CFF636B3B4459684868C2
:102810000AF09CFF6368626B0020616A0133174411
:102820006360796002F83600666204F033FB04F0FE
:1028300031FB2846BDE8F8832846BDE8F88300BF91
:10284000D07600202C020020F8B5584C01F0E8FEAC
:1028500094F82830002B57D0D4F8BC30534A9BBB97
:10286000D2F8B43083BBD2F8AC306BBBD2F8A43012
:1028700053BBD2F89C303BBBD2F8943023BBD2F888
:102880008C300BBBD2F88430F3B9D36FE3B9536FFC
:10289000D3B9E36EC3B9536EB3B9D36DA3B9536D56
:1028A00093B9D36C83B9536C73B96FF00B03404980
:1028B000DA1781FB0313C2EB6313246A04FB03F4EE
:1028C00004F0E8FA2046F8BD9B68002BF5D0002202
:1028D00001E09B6843B159681046914201D90A460C
:1028E00008469B68002BF4D10C38B0F5800F0346E6
:1028F000DDD8226A2E4B02FB00F0A3FB00235C090B
:1029000004F0C8FA2046F8BD2A4B01219A6884F8E1
:10291000281058680AB982089A605A261022202581
:1029200040272662802622644FF48072A5644FF40B
:102930000075196827654FF48067A6654FF4006637
:1029400022664FF48052A5664FF40055A1F114039E
:102950002767A6674FF48047C4F880204FF40046ED
:10296000C4F888504FF480324FF400350344C4F863
:1029700090704FF48027C4F898604FF40026C4F894
:10298000A0200222C4F8A8500125A163636322613C
:10299000E060C4F8B070C4F8B8605D6065626560FE
:1029A0000AF0D4FE0EF0C0F9256355E7D07600207A
:1029B0001F85EB516C730020102807D9054B5A680E
:1029C0005208904228BF1046986070471020014B73
:1029D000986070476C730020024A9369013B9361D1
:1029E000704700BFD076002003680B4A30B404461D
:1029F00053F8085C506B10F83530012B03D9D169BE
:102A000009B10139D1610022013B00F8353010468F
:102A1000226030BC704700BFD0760020034B5B6B58
:102A200003EBC00040680830704700BFD07600203C
:102A30002DE9F04FBD4DA5B00E469A462D6824AC49
:102A40000DF1700C0DF16C0EE96B1546B84F1AAA1A
:102A50000B6819A944F8300D21A806930DF15E0307
:102A6000CDF804C0CDF800E023942197DDF8B8B08C
:102A700000F064FB40B10120AC4B069A1B68DB6B95
:102A80001A6025B0BDE8F08F01F0CAFD01F04CFCE2
:102A9000A64A199B116803FB0AF31A9ACC6C02FB35
:102AA0000AF2096D34190A9069181FA80794089151
:102AB000ADF87E100139ADF87C40B3FBFBF3B2FBFF
:102AC000FBF223440A44013BADF88220ADF880308C
:102AD0000AF000F800286FD0BBF1000F5B464FF002
:102AE0000004B8BF0BF101035B10099319E014DB7C
:102AF000022B12DC1B9921A800F048FC1C981A9CA0
:102B0000019021A80094199B089ACDF80CB0079960
:102B1000CDF808A00DF0E0FA044609F06DFE00289B
:102B20004BD01C9B002BE2D1BDF85E30013B1F2B2C
:102B3000F3D801A252F823F0292F00081B2B00081C
:102B40001B2B0008292F00081B2B00081B2B00083B
:102B50001B2B0008292F00081B2B00081B2B00082B
:102B60001B2B00081B2B00081B2B00081B2B00082D
:102B70001B2B00080B2E00081B2B00081B2B00082A
:102B80001B2B00081B2B00081B2B00081B2B00080D
:102B90001B2B0008E32C00081B2B00081B2B000834
:102BA0001B2B00081B2B00081B2B00081B2B0008ED
:102BB0001B2B0008C92B000804460A9803F078FD77
:102BC00004F068F9204657E71A9B0022199903FB85
:102BD0000AF30C911E9293FBFBF39342109340F384
:102BE0004182013B0B934FF0FF330E930B4643F3AF
:102BF0001A03DDF82480D9469E00D0440024C14544
:102C00000AD9D0440134C845FBD305E000F0A6FB47
:102C1000013C002840F0B581631C1EAA4FF0000360
:102C2000314621A8F2D1D9440123C14500F24682A0
:102C3000D9440133C845FBD20E9A119302FB03F22B
:102C400012921E9A10460E9A013200F02082089BC2
:102C50000B9A134419460F93119B5D461396064633
:102C6000013B099C0C9A0B441593079B0D93002381
:102C7000511C02E00133994227D05444D71AAC4288
:102C8000F8D332780133B1785D4442F07F427078F6
:102C9000A54206EB830642EA014343EA002000F224
:102CA000118201225D440132AC42FBD2149206F043
:102CB000FFFC149A0D98159B02440F990D92013A4E
:102CC00006F05CF87A1E002FD1D10B9B129A109956
:102CD0001344139E8B420B9380F29781002B8CDA66
:102CE00093E11A9B0022199903FB0AF30C911E929F
:102CF00093FBFBF39342109340F3AC81013B0B93A6
:102D00004FF0FF330E930B4603EB4303DDF82480B3
:102D1000D946DB001F335B119E00D0440024C84518
:102D20000ED2D0440134C845FBD309E08001002015
:102D30002D31000800F012FB013C002840F02181F9
:102D4000002C4FF000031EAA314621A8F2DAD94424
:102D50000123C14500F2AE81D9440133C845FBD2FD
:102D60000E9A119302FB03F212921E9A10460E9ACB
:102D7000013200F08481089B0B9A134419460F938B
:102D8000119B5D4613960646013B099C0C9A0B4429
:102D90001593079B0D930023511C02E001339942C8
:102DA00028D05444D71AAC42F8D331780133B278E2
:102DB0005D4441F07F41707803EB4303AC4241EA4C
:102DC00002421E4442EA0020C0F09C8101225D4480
:102DD0000132AC42FBD2149206F06AFC149A0D98B0
:102DE000159B02440F990D92013A05F0C7FF7A1E18
:102DF000002FD0D10B9B129A139E9B180B9300F1BE
:102E00000481109A934288DBFFE01A9B00221999F3
:102E100003FB0AF30C911E9293FBFBF39342109376
:102E200040F31081013B0B934FF0FF330E930B46A1
:102E30001B01DDF82480D9461F335B119E00D0446E
:102E40000024C1450AD9D0440134C845FBD305E06C
:102E500000F084FA013C002840F09380621C4FF09F
:102E600000031EAA314621A8F2D1D9440123C84546
:102E7000C0F01C81D9440133C845FBD20E9A11938E
:102E800002FB03F214920E9A01321E9900F00781A0
:102E9000089B0B9A13440F9324AA119B099C5D462F
:102EA0001046013B0F9A13440C9A1593079B0D9300
:102EB000034643F81C1D12930023511C02E001330A
:102EC000994228D05444D71AAC42F8D312985D44A2
:102ED000139305F015F906F0EBF91D9A139BAC421C
:102EE000014602EB43031D93C0F0F98001225D44CB
:102EF0000132AC42FBD20846139206F0D9FB139A7A
:102F00000D98159B02440F990D92013A05F036FF7A
:102F10007A1E002FD0D10B9B149A9B180B9374D45C
:102F2000109A93428BDB70E01B9921A800F02EFAD7
:102F30001A9B0022199903FB0AF30C91BDF85E104D
:102F40001E920B9193FBFBF8904573DD4FF0FF331E
:102F500008F1FF390D930B46013B1F2B68D8DFE8C2
:102F600003F06167675B67676756676767676767EF
:102F7000671267676767676767126767676767678B
:102F800067120124C9E50C9BDF001F377F11BF00CA
:102F9000099D5E4655440024AE4209D9554401348A
:102FA000B542FBD304E000F0D9F9013C0028E8D198
:102FB000611C4FF000031EAA394621A8F3D15E44DC
:102FC000AE4200F2998001235E440133AE42FBD948
:102FD0000D9A194602FB03FE01321E984AD0089B47
:102FE00003EB09020B9B0124F14402910493CDF8F9
:102FF00004B00C9BCDF800A0079903940DF0D6FC0B
:10300000C14502DAB9F1000FC4DA002485E50C9B52
:10301000DF1C27F00307BBE70C9B9F001F377F11C6
:10302000BF00B5E70C9B03F11F077F11BF00AFE79F
:103030000027ADE7A5D00123C8F1000891460D9304
:103040000B4689E79DD05B420B92109301230E93B0
:103050000B46EDE695D05B420B92109301230E9345
:103060000B4651E68DD05B420B92109301230E93D9
:103070000B46BCE5089A4A44D31A5A1CB2E70B998E
:10308000089A0A44D31A01330F93194678E60B992C
:10309000089A0A44D31A01330F931946DCE5089ABB
:1030A0000B980244D31A01330F93F5E60E9A11934D
:1030B0001492E9E60E9A1193129256E60E9A119323
:1030C0001292BEE506F0F4FA119B012B27D10F995D
:1030D0000D9805F0F9FD0D9B01330D93F2E506F017
:1030E000E7FA119B012B1CD10F990D9805F0ECFD0F
:1030F0000D9B01330D930BE70121DDF834E00B4606
:10310000724669E706F0D4FA119B012B0BD10F9997
:103110000D9805F0D9FD0D9B01330D9367E6012253
:10312000C8E50122ECE6012259E600BF10B40468AC
:10313000104623445DF8044B0B6070472DE9F043C3
:10314000044683B00020894690461E4660600346D0
:1031500025686946A0683622A847362803D0012092
:1031600003B0BDE8F083636868463633636004F0FB
:10317000C7FF009B054668460C33009304F0C6FF6A
:103180000746684604F0C2FFC9F80000684604F02C
:10319000BDFF009BC8F8000068460233009304F0AE
:1031A000AFFF3080684604F0B1FF009B0B9A0C33F0
:1031B00010606846009304F0A9FF3388013B1F2B81
:1031C000CDD801A252F823F0933200085F310008F5
:1031D0005F3100088B3200085F3100085F31000862
:1031E0005F310008493200085F3100085F31000894
:1031F0005F3100085F3100085F3100085F3100086F
:103200005F3100089B3200085F3100085F31000821
:103210005F3100085F3100085F3100085F3100084E
:103220005F3100089B3200085F3100085F31000801
:103230005F3100085F3100085F3100085F3100082E
:103240005F3100089B3200084FF480730A9A1360C4
:1032500008B10A9B18600B9B1B68032B21D0606888
:103260002838384460600A9B1B68B3F5807F3FF7BD
:1032700076AF44F642539D427FF471AF0B9B1868C2
:10328000032894BF002001206AE710230A9A1360E4
:10329000DEE702230A9A1360DAE700230A9A136032
:1032A000D9E726681022636801A9A068B0471028F2
:1032B00005D06368A3F1380038446060D3E76368E1
:1032C00001A8254E1033636004F020FF306001A890
:1032D00004F01CFF706001A804F018FF002233689E
:1032E000F260DA07B06007D401225B0811460132B0
:1032F00013F0010FF9D0F16001225B08964601320C
:1033000013F00101F9D17368C6F818E0DA073161EA
:1033100007D401225B081146013213F0010FF9D0E6
:10332000316101225B089646013213F00101F9D1A7
:10333000C307C6F81CE0716106D4012340081A4691
:103340000133C107FAD57261012340081A460133DF
:10335000C107FAD43262ACE7C874002070B50446E5
:103360000D464BB94368114626682A46A068B04707
:10337000854205D0012070BD00210B464160F2E777
:10338000636800201D44656070BD00BF00292FDD0B
:103390002DE9F0410F4682B004460025DFF8548045
:1033A00015E06368019A0433D8F80060636013780D
:1033B000917843F07F43507843EA014343EA002089
:1033C00005F08EFA46F825000135AF420CD00422F4
:1033D000266863680DEB0201A068B0470428E0D0BE
:1033E000012002B0BDE8F081002002B0BDE8F0810C
:1033F00000207047D89700202DE9F041144606467A
:10340000884601F00DF9204600F09AFFE8B9A700C0
:103410001B4D3B1905EB8303DA68B24206D11B69E9
:10342000434503D1BDE8F04103F034BD3B1905EB42
:1034300083035869D0B93C4405EB8404E660C4F8C2
:103440001080BDE8F04103F025BD0D4B04EB840472
:1034500003EB840463689A685968C2EB0802711A26
:1034600003F062F9BDE8F04103F014BD5B689A68AF
:103470005968C2EB0802711A02F0B8FDDBE700BF21
:1034800060760020C3B2CAB29A1A92B210B414B2D3
:10349000002C1EDBC1F30722C0F307239B1A9BB24B
:1034A0001AB2002A12DB090C02FB02F2C1EB104136
:1034B00004FB042089B20CB2002C01DA49420CB2A0
:1034C000A1B25DF8044B01FB010070475B421AB2E8
:1034D000E9E7524214B2DDE700212DE9F041084648
:1034E00082B000F0C7FF184F01F09AF8042006F0F0
:1034F00011F9164B43F6FF763D461B69804634466C
:103500006846DA6C1B6D174416441D441C44ADF824
:103510000070ADF80460ADF80250ADF8064009F057
:10352000D9FA48B1234632462946384605F026FCEA
:1035300009F062F90028F5D1404606F0EBF803F0F7
:10354000A9FC02B0BDE8F08101C0FFFF70010020BE
:103550002DE9F04182B016461C4607460D4601F0A3
:103560005FF8042006F0D6F8134B804668461B69C6
:10357000DA6C1B6D174416441D441C44ADF80070F2
:10358000ADF80460ADF80250ADF8064009F0A2FABB
:1035900048B1234632462946384605F0EFFB09F08C
:1035A0002BF90028F5D1404606F0B4F803F072FC80
:1035B00002B0BDE8F08100BF700100202DE9F041AC
:1035C00082B0B0F90070B0F90260B0F90450B0F9FF
:1035D000064001F025F8042006F09CF8134B8046C5
:1035E00068461B69DA6C1B6D174415441E441C4465
:1035F000ADF80070ADF80450ADF80260ADF80640CB
:1036000009F068FA48B123462A463146384605F0A3
:10361000B5FB09F0F1F80028F5D1404606F07AF83C
:1036200003F038FC02B0BDE8F08100BF700100205B
:103630002DE9F047044682B00D461646002B37D0E0
:103640009A46009651460B9B204626680A9AB04738
:10365000074618B9384602B0BDE8F08707F016FBF8
:10366000618A8046384606F043FC013D384608F042
:10367000A3FE404608F0A0FE002D1DDD4FF000091E
:1036800003E008F099FE013D16D054F81C6F0023AA
:10369000CDF80090414620461A46B047064600281D
:1036A000EFD1384607F042F8304602B0BDE8F08767
:1036B00007F0FAFA8246C4E740461D2108F0F6FCFE
:1036C000BAF1FF3FC6D000F0ABFF07F073FB60B963
:1036D000BA4502D0384608F083FD03F0DBFB3846DC
:1036E00002B0BDE8F0870028F4D0FFF797F98069B1
:1036F0008742F8D1F1E700BF012B17DC2DE9F0413B
:1037000007461C2090460D461E46FEF73FFE044627
:10371000D0B16DB1056100232046A661A4F81480E4
:10372000E76023606360A360BDE8F081002070471C
:10373000074B53F826200AB9EDE71A461368002B09
:10374000FBD113692361E6E70020BDE8F08100BFEB
:10375000AC770020012B3BDC2DE9F84381461C208F
:1037600090460F461E46FEF711FE054600287FD004
:10377000414A002F31D00023DFF804E152F82640FF
:1037800003609EF8001007618E428661A0F81480E5
:10379000C0F80C904360836002DB731C8EF800302D
:1037A000002C5DD021464C68002CFBD1D9F80000DC
:1037B000CB681B6883422CDD09680029F8D148B921
:1037C0002E4B163628461A6842F82650BDE8F88374
:1037D000002070472846BDE8F88352F826100029DB
:1037E00030D0084600E018460368002BFBD1006982
:1037F000DFF88CE02B6028619EF80000AE61864205
:10380000A5F81480C5F80C906B60AB60CBDB0C4660
:10381000C3E70AD04B6843B31D606B608D4214BF91
:103820000B4600234D602B60C9E7B8F1010FF1D1C1
:1038300004E0DC68194623688342EBDB0B68002B4D
:10384000F7D1E7E7DFF838E001609EF800308661E5
:103850009E42A0F81480C0F80C9041608160D6DAD6
:1038600042F82650D9F80000A9E742F82650D5E7DB
:103870000020BDE8F88300BFAC7700208001002065
:10388000A5770020FEF720BD00283DD070B48469E4
:10389000012C03DD0123184670BC70471F4B1A78BA
:1038A000944221DA1E4D55F824300BB932E013460C
:1038B0005A68002AFBD1C268116802E01B68002B1D
:1038C000E8D0DA6812689142F8DB10D05A68F2B199
:1038D00010604260984214BF1A46002258600023CC
:1038E0000260184670BC7047621C1A70DAE7828A60
:1038F000012AEBD104E0D668134632689142E5DC38
:103900001A68002AF7D1E1E701231846704745F805
:103910002400DFE745F82400BDE700BFA5770020BD
:10392000AC77002000284DD02DE9F041DFF89CE075
:10393000254F9EF80060BC4601E028463DB38469EF
:103940000568012CF9DCB44201DB661CF6B257F8BD
:1039500024300BB933E013465A68002AFBD1C26801
:10396000116802E01B68002BE7D0DA6812688A420F
:10397000F8DC10D05A68A2B110604260984214BFBF
:103980001A460022586002602846002DD7D18EF8D2
:103990000060BDE8F081828A012A0CD05A68002AB2
:1039A000EAD147F82400E9E7D2F80C801346D8F8AA
:1039B00000208A42DEDB1A68002AF5D1DAE74CF8EB
:1039C0002400BAE7704700BFAC770020A57700203D
:1039D0000F4A816952F8213098420AD042680AB1F0
:1039E00003681360036803B15A60002303604360F7
:1039F0007047036842F821302BB100225A604268B8
:103A0000002AEED1F0E74268002AEAD1EDE700BFD4
:103A1000AC7700200020704701280EDC084B53F8DB
:103A2000200058B1C3681B681BB908E0C3681B6855
:103A300023B100680028F9D1704700207047704713
:103A4000AC77002000B970472DE9F04182B01E46E6
:103A500015460C460746FEF763FE02AB026843F8C4
:103A6000040D1846D2F80080FEF7BEFF33462A4602
:103A700021463846C04702B0BDE8F0812DE9F84341
:103A8000074611F06BF9DFF86C90074411F066F906
:103A9000DFF864803E1A002E22DD00F057FBD9F8D3
:103AA00000309E42A8BF1E4600F0BAFDD8F8004084
:103AB000FEF72EFEB4B1254603F0ECF9013DFBD133
:103AC000304611F047F900F0ABFD013CFBD1FEF7A9
:103AD00083FF03F0DFF911F041F93E1A002EDCDC20
:103AE000BDE8F883304611F035F9FEF775FF03F0B5
:103AF000D1F9F0E784010020D87500202DE9F04FBE
:103B00004A4D83B0044600F08BFD00F02FFC2B687B
:103B10000646B3F9228000F079FC2B681FFA80F981
:103B20009A8CC9EB020212B29A84217800294FD0F4
:103B3000B6B22F4647F6FF71204604F01FF9014642
:103B40008346204604F0DAF829688B8D03F00303DE
:103B5000012B5AD0022B5CD01FFA80FA4FF0000ED6
:103B60004B8C0AF1FF3CB1F92420CEEB0303ADF8F6
:103B70000220013A9BB2B0186A460FFA83FE6344F2
:103B8000ADF806002046A1F822E05946ADF800E065
:103B9000ADF8043003F01CFC2B682046BDF8022071
:103BA00059469A8403F04CF8235C04440A2B1BD03A
:103BB0000D2B19D0BDF800003B688244A3F822A069
:103BC00022781AB162780134002AB3D1B3F92420E3
:103BD000998D914421F00302A3F824909A8503F073
:103BE00059F903B0BDE8F08F2B689A8D02F00302FB
:103BF000013A012A16D8A3F8228022780A2AE0D1B5
:103C00009A8C32449A842278DBE71FFA80FEF246CF
:103C1000A6E7002803461FFA80FAB8BF431CC3F387
:103C20004F0E9DE71A8C5A84E7E700BF8001002001
:103C300070B50E461546044600F0F2FC054B1B68B5
:103C40005E849D8414B12046FFF758FFBDE87040A4
:103C500003F020B98001002020B3F0B50C4683B0FA
:103C60000546164600F0DCFCD4B1204608F094FB73
:103C7000074638B102462146684604F0F7F8684620
:103C800008F08AFB3246214647F6FF73284603F0C8
:103C900001FC384608F080FB03F0FCF803B0F0BDEF
:103CA0002746EFE7704700BF08B100F001B8704742
:103CB0002DE9F04F89468BB01546044603921F4606
:103CC00000F0AEFCB9F90030B9F904100193CE1A36
:103CD000B9F906300291B9F902B00136059300F046
:103CE00045FB15F00C0A049076D11FFA80FA48467D
:103CF00008F052FB02460490A8B10199002506A8DD
:103D00002B4661F30F0502996BF31F4561F30F0317
:103D10000599069561F31F434946079304F0A6F8F9
:103D200006A808F039FB039B1FFA8BF503F0030884
:103D30000AF1FF3303934346B0461E4615E0022EB8
:103D400034D01EB9B9F80030ADF8203020465946BD
:103D500008AA554403F03CFB20463A46414604F08D
:103D60006BFA0444ADB2237873B33A464146204619
:103D700004F0C4FABDF80420039B8346ADF820206C
:103D80002046EB18BDF808205946ADF82250ADF892
:103D90002420ADF8263003F0B1FF012ECFD1B9F8C1
:103DA00004300133181AADF82000CFE7B9F900103C
:103DB000B9F904305B1A181A013048BF013001EB21
:103DC0006000ADF82000C1E7049808F0E5FA03F0C0
:103DD00061F80BB0BDE8F08F254600F021FC3A46B3
:103DE000314628464FF0000804F026FA48B1054451
:103DF0003A46314608F10108284604F01DFA002829
:103E0000F5D103F047F8BAF1080F08D0BAF10C0F5A
:103E100010D0BAF1040F02D0BDF810A067E7BDF8CA
:103E200010A0059B18FB0AF85D1CC8EB05050FFAEE
:103E300085FB5CE7059B049ACBEB0303BDF810A060
:103E4000013308FB1238B8F1000FB8BF08F10108C0
:103E50000BEB68050FFA85FB49E700BF2DE9F04F32
:103E600091B080461E460F46914600F0D9FB674B45
:103E70000EA81C68E56C246D05EB080305EB090230
:103E8000E11934440793089202910194ADF8383057
:103E9000ADF83C20ADF83A10ADF83E4008F01AFEFF
:103EA000002800F09780019B029A1A99C2EB030B3D
:103EB0009DF86820C1F307241B99BBF1000F5B46F6
:103EC000C1F307271A99B8BF0BF101030BFB02FEE0
:103ED000C1F307401B995B109DF86CC0C1F3074606
:103EE0001A9903EB0E05090E0A950BFB04353C1BD2
:103EF00003940BFB0034301A0BFB01335E460B9529
:103F00000D931B9B0C94C1EB136304900593C2EBC0
:103F10000C03069300F008FA1A9B1B9A099093422F
:103F200069D0002E52D0029D019A95425BDC0AAF07
:103F300086464FF0010B97E8800706E00BF1010B76
:103F40000135019BA646AB422FDB70469AFBF6F487
:103F500099FBF6F197FBF6F398FBF6FC2206059C1D
:103F600043EA0C23A24442EA0144049A1C43029B04
:103F70009144069AAB421744039A9044E0DA7445A0
:103F8000DCD005F095FBBBF1010FCBEB050105F192
:103F9000FF33089A079822D004F0F0FE0135019B08
:103FA0004FF0010BA646AB42CFDA204605F080FB6E
:103FB000BBF1010F19D0019B089ACBEB03010798C5
:103FC000013104F0DBFE099805F072FB08F014FCE7
:103FD00000289FD102F05EFF11B0BDE8F08F691E8E
:103FE00004F04AFEACE705F063FB089A01990798D4
:103FF00004F042FEE7E7184605F05AFB019B089AD9
:104000000299079804F0BAFEDDE700BF80010020A6
:10401000F0B5144F83B006460D46144600F000FB81
:104020003B686846196DDA6C0E441544144433B28B
:10403000ADF80050ADF80440ADF80230ADF80630F0
:1040400008F048FD50B13B682246314628465B6E79
:104050001B68984708F0D0FB0028F4D102F01AFF43
:1040600003B0F0BD800100202DE9F04782B0044686
:1040700089469246984600F0D3FA1E4B68461F6860
:104080003E7EFD6C013E3F6D2C445544B2B2B944B6
:10409000B844A61A5119C2EB09034244ADF80060B6
:1040A000ADF80410ADF80230ADF8062008F012FDAE
:1040B000D8B109F1010708F1FF362A4649462046E2
:1040C00004F0DAFD2A464146204604F0D5FD32468A
:1040D0003946204604F02AFE32463946284604F086
:1040E00025FE08F089FB0028E7D102F0D3FE02B0DC
:1040F000BDE8F0878001002070B582B00646144606
:104100000D4600F08DFA104B68461A68D36C126D9C
:104110001E441544144433B2ADF80250ADF80640C5
:10412000ADF80030ADF8043008F0D4FC40B12246C0
:104130002946304604F0FAFD08F05EFB0028F6D16F
:1041400002F0A8FE02B070BD800100202DE9F04110
:104150000025124F124EDFF84C803C681CB1A0477E
:10416000041C18BF012406F007FC3368002818BFA0
:1041700001244BB1984738B1D8F8003013B101246D
:1041800098473CB10125E8E7D8F80030002BF7D17B
:10419000002CF7D12846BDE8F08100BFD077002081
:1041A000D4770020CC770020F0B583B007461646C0
:1041B0001C460D4600F034FA104B68461B68DA6C5A
:1041C0001B6D174416441D441C44ADF80070ADF837
:1041D0000460ADF80250ADF8064008F07BFC48B131
:1041E000234632462946384604F0C8FD08F004FB51
:1041F0000028F5D102F04EFE03B0F0BD8001002092
:10420000002850D0C388013B10B5848880681F2BDC
:1042100047D8DFE803F0162346314646463C46467B
:104220004646464646404646464646464646464634
:10423000464646464610A31002FB031150F82100E3
:1042400010BD02FB04F200EBD104C843A35C00F0F4
:10425000070023FA00F000F0010010BD02FB04F299
:1042600000EB91046FEA4100A35C00F0060023FA22
:1042700000F000F0030010BD02FB04F200EB51045B
:10428000CB07A05C4CBF00F00F00000910BD02FB83
:104290000404605C10BD631002FB031130F81100D0
:1042A00010BD002010BD7047034B082153F82000BB
:1042B000C3689B6A184700BFAC77002010B500F0B8
:1042C000AFF904F09BFD04F069FF044602F0E2FD43
:1042D000204610BD10B5044600F0A2F9054B0021A0
:1042E00020461B68DB695B689847044602F0D2FDF4
:1042F000204610BD8001002038B504460D4600F070
:104300008FF9064B294620461B68DB695B68984796
:10431000044602F0BFFD204638BD00BF80010020EA
:1043200008B106F08BBC704710B500F079F904F0C5
:104330006DFD04F033FF044602F0ACFD204610BDD5
:10434000012801D900207047014B53F82000704725
:104350004874002010B500F063F9034B1B681C7C07
:1043600002F098FD204610BD8001002010B500F03D
:1043700057F9044B1B68DB695C7E02F08BFD20461D
:1043800010BD00BF8001002070B504460E461546E2
:1043900000F046F9204631462A4604F0D5FD044691
:1043A00010B1002333602B6002F074FD204670BD15
:1043B00038B505460C4600F033F9064A064BB2F90B
:1043C0000020B3F900302A602360BDE8384002F0D5
:1043D00061BD00BF967700209877002010B5044695
:1043E00003F0F4FC01462046BDE8104003F086BC13
:1043F00010F0B4BC044B3422352061219A7018703F
:1044000018461971DA7070476801002010B500F085
:1044100007F90F4B1A68938D03F00C03082B08D093
:104420000C2B06D0042B0BD0002402F033FD2046C9
:1044300010BDD3691C7E02F02DFD6408204610BD1E
:10444000D3691C7E02F026FD013C204610BD00BF52
:1044500080010020024B53F820301B691868704718
:10446000AC770020024B53F820301B695868704726
:10447000AC77002038B505460C4600F0D1F8044B67
:104480001B685D849C8402F005FD002038BD00BFE0
:104490008001002090B583B000AF544A534B1B6895
:1044A00023F001031360524B1B68C3F30A0340F26D
:1044B000494293420CBF01230023DAB24C4B1B68E4
:1044C000C3F30A0340F251418B420CBF0123002386
:1044D000DBB21343DBB21946454B1B68C3F30A0337
:1044E00040F2524293420CBF01230023DBB20B4344
:1044F000002B10D03F4B01221A6000BF3D4B1B68C0
:10450000002BFBD13C4B3D4A1A603B4B1B683C4A9D
:10451000934218D0FEE73B4B1B68C3F30A03B3F585
:104520008A6F10D1384B01221A6000BF364B1B68CE
:10453000002BFBD1354B314A1A60344B1B68304A93
:10454000934200D0FEE702F001FF314B2E221A7099
:1045500010F006FC2F480DF03BFF0FF091FE786045
:1045600004F06CFD0346002B0CBF01230023DCB2DA
:1045700004F0AAFD0346002B0CBF01230023DBB28D
:104580002343DBB2002B09D004F06EFD044604F097
:10459000B1FD03461946204605F0B6F8002100207B
:1045A00002F0D2F806F058FFFDF78AFD1A4B1B689F
:1045B000002B12D00DE0184B1B681B68002B03D09A
:1045C000154B1B681B689847134B1B685B68124AA6
:1045D0001360114B1B68002BEDD1104B01221A7098
:1045E0007B6818460C37BD4690BD00BF002000E038
:1045F000002004E00830024000300240C2A507F469
:10460000CDB5E8B50010005C084C0258004C0258CB
:104610009477002080730020F8730020A477002096
:104620002DE9F041224D6B6823B110F095FBAB688A
:10463000984204D010F0A8FB10F08EFBA8606B68C5
:104640000133012B6B6001D0BDE8F081194F3B684D
:10465000002B28DD0024264605E03AB301363B68EE
:104660007C349E421FDA10F077FB2B681A592344E2
:104670009042F2D17B68B342E6D0002B10DBC3EB53
:1046800043132A6802EB8308FFF7C4F92A680A4B30
:104690001444C8F87800221DA06F1A60FFF742F991
:1046A0007E60BDE8F08100242646E3E71860E1E77C
:1046B000D4750020180200208001002010B582B0BF
:1046C00028B9134B1B681C6E14B902B010BD044608
:1046D000FFF7A6FF2046FEF723F802AB446943F834
:1046E000080D1846FEF780F91CB902F0D3FB02B0A2
:1046F00010BD204602ACFEF713F8826844F8040DA2
:10470000936898472046FEF76FF902F0C3FBEEE787
:104710008001002000B97047014A114600F002B83C
:1047200001F0FFFF2DE9F047DFF8F88084B00C4678
:1047300015460646FFF774FF002001F0C5FFD8F8C4
:104740000030814630461F6EFDF7EAFF0368009097
:10475000986901F081FF324B82469C42009B53D006
:104760001A895B89013AADF80840013BADF80A505F
:1047700022442B44ADF80C20ADF80E3005F0AAFD14
:104780006846FEF731F902A808F0A4F948BB504684
:1047900001F062FFFFF744FF002F3DD0D8F8003052
:1047A0001B6EB3BB05F066FF3846FDF7B9FF04ACDE
:1047B000D8F8003044F80C0D1F660068FFF764F865
:1047C0002046FEF711F905F051F804F063FF02F0FE
:1047D00061FB484601F078FF02F05CFB04B0BDE8E5
:1047E000F0872A462146304600F094FD08F004F890
:1047F0000028CCD02A462146304600F08BFD07F039
:10480000FBFF0028EDD1C2E7B3F90440B3F906502D
:10481000A6E701F013FFC5E701F010FFD7E700BFDF
:1048200001F0FFFF800100202DE9F04385B006462E
:10483000904699460F46FFF7F3FE1C4A1C4B126840
:10484000507C53F8204001E024682CB3E3681A68D8
:10485000042AF9D1DB6A012120469847054608B3AE
:104860002469A3689847134A01304B46019539469D
:1048700006BF14464FF0010E4FF0000E4246029460
:104880003046CDF800E000F0C1FB044602F002FB28
:10489000204605B0BDE8F083FFF7BEF8044618B126
:1048A000C368D7E70446F1E72046F2E7800100201D
:1048B000AC770020D02302082DE9F04385B00646EE
:1048C000904699460F46FFF7ABFE1C4A1C4B1268F8
:1048D000507C53F8204001E02468FCB1E3681A687A
:1048E000042AF9D1DB6A0121204698470546D8B150
:1048F0002469A3689847013018D00C994B4602945C
:104900004246009130460195394600F07FFB04464F
:1049100002F0C0FA204605B0BDE8F083FFF77CF84E
:10492000044648B1C368DDE70446F1E70C9B054C3B
:1049300043F001030C93E0E72046ECE78001002000
:10494000AC770020D02302082DE9F04184B00C9C04
:104950009CB1984617460E460546FFF761FE0B9B35
:104960000A9A3146029428460193434600923A46F9
:1049700000F04CFB044602F08DFA204604B0BDE87E
:10498000F08100BF00B9704710B582B00446FFF750
:1049900047FE104B1B681B6E9C4217D02046FDF74C
:1049A000BFFE4369019063B90068FEF76BFF01A881
:1049B000FEF71AF82046FDF767FC02F06BFA02B02A
:1049C00010BD184602F04CFA0198EDE701F036FEF2
:1049D000E4E700BF800100202DE9F04F87B00446D6
:1049E00092461D468946FFF71BFE574B1A68574BE8
:1049F000577CDB573846012B40F39A8004F024FBA8
:104A00000646384604F066FB0746002C00F08D8011
:104A100005A904A8FFF7CCFC049A059B1644B4F939
:104A200000201F44B4F9023022EAE272013E23EA78
:104A3000E373013F114602921846B4F90420039330
:104A40009642D4BFC1EB0601C1EB0201B4F90630B6
:104A500002460E469F42D4BFC2EB0702C2EB0302DE
:104A600001361746013705B97D42002E4FDD002F74
:104A70004DDD109B3246039900932B460298FFF7B9
:104A80001BFF8046002848D000F0DCF8874206462D
:104A900004D02D4B1B68986C002851D140463D46F0
:104AA0000024DFF8ACB000F0D9F90EE0AD1BACB9D2
:104AB00050463444C847DBF80030FF2003B1984724
:104AC0004046FFF727FEA74212DDAE42EEDD294643
:104AD000404600F0A3F9AD1B002CE9D0039B4046F3
:104AE00002991A1900F0EAF94046FFF7E7FDDFE7FF
:104AF0004046FFF747FF002000F0B0F9B74206D06C
:104B0000114B1B68986C10B1332108F031FD02F095
:104B1000C1F9002007B0BDE8F08F5046C84702F049
:104B2000B9F9012007B0BDE8F08F039402949AE729
:104B300004F034FA0646384604F05AFA074664E7A9
:104B4000322108F015FDA9E780010020A877002098
:104B50002C76002030B5044683B098B1FFF760FD95
:104B60002046FDF7DDFD036802AD1B6945F8040D25
:104B70009B68984704F09AFF04462846FDF734FFE7
:104B800002F088F9204603B030BD00BFA0B110B5D7
:104B9000044682B0FFF744FD2046FDF7C1FD02AB9D
:104BA00000F1180443F8040D1846FDF71DFF02F04C
:104BB00071F9204602B010BD704700BF10B5044621
:104BC00082B0FFF72DFD7CB12046FDF7A9FD02ABB9
:104BD000B0F9044043F8040D1846FDF705FF02F054
:104BE00059F9204602B010BD044B1B681C6E002C06
:104BF000EAD102F04FF9204602B010BD800100203A
:104C000010B5044682B0FFF70BFD7CB12046FDF7DE
:104C100087FD02ABB0F9064043F8040D1846FDF7D6
:104C2000E3FE02F037F9204602B010BD044B1B68CA
:104C30001C6E002CEAD102F02DF9204602B010BD06
:104C40008001002010B5044682B0FFF7E9FC7CB17A
:104C50002046FDF765FD02ABB0F90A4043F8040DAC
:104C60001846FDF7C1FE02F015F9204602B010BD4E
:104C7000044B1B681C6E002CEAD102F00BF9204695
:104C800002B010BD800100202DE9F04F804687B0B2
:104C9000002758E0002E7ED106F006F8804500F08F
:104CA0009A80584B01264946224602935846564B55
:104CB000009601932B4600F0A9F981464046FDF786
:104CC0002FFD03460590C0F82490B9F1000F79D06C
:104CD000826A05A8DFF840B142F480329A62FDF79B
:104CE00083FE484600F0BAF882463046474E02F04E
:104CF00029F94846FFF74AFF454B05FB04F2454CAE
:104D0000197892003568A84740462568CBF800809E
:104D100006F08EF82060404608F0F2FA0022256086
:104D20001046CBF8002002F00DF9504600F096F83E
:104D30004046FDF773FE406AB0FA80F35B09013725
:104D4000042F22DC0BB34046FDF7EAFC034605A81E
:104D5000B3F900B0B3F90290B3F90440B3F90650C7
:104D6000CBEB04040593C9EB05055E6A0134FDF73E
:104D70003BFE0135002DC8BF002CD4BF012300230A
:104D800088DC01370020042FDCDD08B100F0D2F808
:104D900007B0BDE8F08F3046FDF7C2FC034606A819
:104DA000B3F9065040F8083DB3F90440FDF71CFE86
:104DB000A94501D1A345BBD04A465946304600F02B
:104DC0007DF8B5E705A8FDF70FFE404608F098FA14
:104DD00033464846B3E704F01BF9064604F05EF993
:104DE000B44202DC85427FF75CAFB442A8BF3446D0
:104DF0008542A8BF0546214640462A4607F09AFA52
:104E00004FE700BFD02302081475020830020020CB
:104E100030760020CC76002058D8002030B50D46E2
:104E200083B028B90C4B1B681C6E14B903B030BD9D
:104E30000446FFF7F5FB2046FDF772FCB0F90A3097
:104E40000190AB42C8BF458101A8FDF7CDFD02F03E
:104E500021F803B030BD00BF80010020F0B5164F2F
:104E600083B00446FFF7DCFB3B681E6EE4B1C6B9B5
:104E700005F000FC2046FDF753FC02AD3B6845F809
:104E8000040D1C660068FEF7FFFC2846FDF7ACFD2C
:104E900004F0ECFC04F0FEFB01F0FCFF304603B034
:104EA000F0BD01F0CBFBE3E701F0C8FB01F0F2FF3E
:104EB000304603B0F0BD00BF8001002070B50D4644
:104EC00082B0164628B91A4B1B681C6E14B902B082
:104ED00070BD044636B22DB2FFF7A2FB2046FDF7A7
:104EE0001FFCC6808580009004F0D4FB009B5869AD
:104EF00030B96846FDF778FD01F0CCFF02B070BD17
:104F0000FDF70EFC009B0190B3F90820B3F90A30BD
:104F10008280C38013B10AB10580468001A8FDF7E5
:104F200063FD6846FDF760FD01F0B4FFE6E700BFF2
:104F30008001002000B9704770B5044684B0FFF7C7
:104F40006FFB2046FDF7ECFB014601A8B1F90460B8
:104F5000B1F906500A894B89324401912B44ADF8CE
:104F60000860013AADF80A50013BADF80C20ADF8ED
:104F70000E30FDF739FD02A807F0ACFD40B12A461E
:104F80003146204600F0A8F907F036FC0028F6D19B
:104F900001F080FF04B070BD00B9704770B50446E1
:104FA00084B00D461646FFF73BFB2046FDF7B8FBE5
:104FB000154A03460190954221D01A8901A85B89C0
:104FC000013AADF80850013BADF80A602A44334479
:104FD000ADF80C20ADF80E30FDF706FD02A807F085
:104FE00079FD40B132462946204600F075F907F0B8
:104FF00003FC0028F6D101F04DFF04B070BDB0F9FC
:105000000450B0F90660D8E701F0FFFF2DE9F04F3A
:10501000DFF82C8187B082468B46D8F8000017460F
:105020001E461299437C00221198FEF765FB00286A
:105030004DD0036905469B68984704F037FD00FB97
:1050400007F48146FDF700FC109B073413F00103C1
:105050004FEAD4043FD0002E2CDD002B42D004FBBD
:1050600006F01830FDF7B8F8024668B30023029343
:1050700010460392FDF754FB029A034606A8A3F8D4
:1050800004A0A3F806B01F815E81DC60C3F8109015
:105090005A6140F8043D1D60FDF7A6FC129AD8F84D
:1050A00000302A61039A1046AA605B7CAB6107B0AE
:1050B000BDE8F08F002C34D1204676428642A8BF4E
:1050C000064693B3002ECADC2846FEF7DBFB002021
:1050D00007B0BDE8F08F0028B8BF0330801000EBA8
:1050E0004000B8E700933A4633465946504601F02F
:1050F00027FE029004FB06F01830FDF77BF802460D
:105100000028B5D128460392FEF7BCFB029B002B7A
:10511000DDD01846FDF7B8F8039A104607B0BDE891
:10512000F08F1838B0FBF4F0C7E700933A463346E7
:105130005946504601F004FE002E0290DADCC3E727
:10514000800100202DE9F04FDFF880918BB05D4B9E
:10515000D9F800C0DFF878819CF811E053F82E40B0
:10516000D8F80030D4F810E0002B00F0A6801646E6
:10517000DCF8602007460D46002A75D0E268126808
:10518000072A78D0504AC2EB0E02B2FA82F25209D4
:10519000002A70D03846FDF7C3FA03460AA8B3F9CF
:1051A00008B040F8083DB3F90AA00BEB0504DB6832
:1051B000013C0593FDF718FCD9F80010B1F90C304B
:1051C000B1F90800E41A002CCCBFC4EB0B045C4618
:1051D00085425EDB0023002C43DD0AEB0600B1F9BB
:1051E0000EE00138CEEB00000028C8BFC0EB0A0A71
:1051F000B1F90A00B04247DC0021BAF1000F079371
:1052000006912EDD3846FFF7C1FC079BD9F8002038
:10521000069901FB0B31136E00EB8107002B3CD08C
:105220001846FDF77DFA02460AA8B2F90410B2F951
:1052300006306D1A40F8042DF31AA900D56801F163
:10524000180605FB03661644FDF7CEFB4EB1059B21
:10525000224600953946019330465346D8F800401F
:10526000A0470BB0BDE8F08FE2681268B2FA82F294
:105270005209002A8ED173463246294638460EF02E
:10528000EDFD0BB0BDE8F08F811B0646C1EB0A0AAD
:10529000B3E7431B0546E41A9DE7507C4FEA8B02B7
:1052A000DFF830E03B4602922946CDF804A03246B2
:1052B0000094DEF80040A047D3E773460EF0CEFD21
:1052C000CFE700BFAC770020D02302088001002088
:1052D000B8770020B47700202DE9F04182B00F4666
:1052E00090460646FDF71CFA034602AC16211D68DF
:1052F000002044F8043DEB685B6A98470546204669
:10530000FDF772FB1DB1424639463046A84702B050
:10531000BDE8F08100B970472DE9F04FA3B08B468E
:1053200092460446FDF7FCF922AB456943F81C0D93
:105330001846FDF759FB2046FFF70CFC082881466C
:1053400040DD002D3ED12046FDF7EAF922AA0346B2
:10535000B0F9081042F8100D10460D92B3F90A206A
:105360000A9109921968DA680E690B930E92FDF79B
:105370003BFB924892490068D6F80480407C51F883
:1053800020100D692B680C93FEF78EFF08280B9BED
:1053900014D910288BBF20221022042702270B9239
:1053A000AE4200F0F882B9F1200F00F0B381B9F1FC
:1053B000100F00F0458123B0BDE8F08F08220127CF
:1053C0000B92EDE70021012320467C4E20910DF148
:1053D00088080B9121930A93FDF7A2F907463068DC
:1053E0003A68FB68B7F908101269139314913B6986
:1053F000B7F90A10407C0993169148F8147D556856
:10540000D7F81490FEF750FF32680E90507CFFF7EB
:1054100029F807464046FDF7E7FA099A0A9B082A49
:105420000B9940F29D80102A13460A918CBF0423E9
:1054300002230C93BD4200F0C1813368587CFFF712
:1054400009F8149B06469800FCF7C6FE1090002849
:10545000B1D02046FFF79AFB0446B9F1000F00F0E7
:1054600088804846FDF75CF9169B1E90002B40F3A0
:10547000A1810023DDF83880CDF834A00B93139B75
:10548000CDF848B0E31815931FAB19460F93836806
:1054900000225B691F920B9A9847159B139A04464A
:1054A0009B1A0E93149B834200F0F680099B012BFC
:1054B00000F08880002842D01CAB11931098FDF7B3
:1054C0002FF9099B07461C90082B1F9A65D90C9B46
:1054D000A3460E99824602FB031939F8020BA8472E
:1054E000B047BBF1010B4AF8040BF6D1B8F11F0F1E
:1054F00004D838464246214601F08EFD0A99012320
:105500001F982246059112991C9F0844002101937F
:1055100000930391CDF808800D99049703F026FAC3
:105520001198FDF761FA1F9B1E981C440B9A836823
:105530000F991F945B69984704460028BED1159ABD
:1055400013990B9B0A44013315920D9A0B93013268
:105550000D92169A9A4200F02D811E980F9996E7A7
:10556000012A03D120AB0C920A9363E70C930A91B2
:1055700060E701250A9B139A099905930490584600
:10558000039202915146169B149A0195009503F0DF
:10559000EDF91098FCF778FE0DE70C9BA2460E99EA
:1055A000814602FB031B1BF8010BA847B047BAF169
:1055B000010A49F8040BF6D198E700BF80010020EA
:1055C000AC7700200028BAD0CDF8608019960B9FE8
:1055D0000A9EDDF83880DDF83490DDF848A0DDF86B
:1055E0003CB017951192DDF87CE02246119D012315
:1055F0000EF0070049460395012506900AEB0E00C0
:10560000BEF1000F05960295B8BF0EF1070E019589
:10561000009508EBEE0ECDF810E004F039F91F9B71
:105620001E983A461C44594683681F945B69984704
:1056300004460028D7D1179DDDF86080199E7EE7CB
:105640000A9B03FB07F0FCF7C7FD109000283FF40E
:10565000B2AEFDF765F820902046FDF761F800F145
:1056600018031E900E932B69002B00F0A68173691E
:10567000002B00F0A281B0F908008000FCF7ACFD1F
:105680001190002840F0BA811F900D98FDF7ACF9F9
:1056900020A8FDF7A9F97CE71098FDF741F8099BD0
:1056A00081461C90082B149F0446DDF838A028D9A9
:1056B0003AF8020BA847B047013F44F8040BF7D172
:1056C000B8F11F0F04D848464246149901F0A4FCD3
:1056D00022AB12980D991A460A9B05930023039357
:1056E000012352F818EDCDF8088017460193149A5B
:1056F0000093CDF810E003F039F93846FDF774F95E
:105700001DE71AF8010BA847B047013F44F8040B06
:10571000F7D1D5E70A9B07FB03F0FCF75DFD0E9080
:1057200000283FF448AEFCF7FBFF20902046FCF732
:10573000F7FF1E902C6900F11808002C00F0EB8098
:105740000A9A5C4601260A954FEA82099346CDF8EB
:105750003090DDF8249017E0042F21D0012F15D0D0
:105760000B9B0020209D51460293012305905A4631
:105770000390204601969A440096049503F0F6F8AB
:10578000B9F1010900F0E880022FE5D10C9D4046F7
:105790003B465A46A8440A9D20992D69A847DFE751
:1057A0000C9B40460A9D5A46984420993B462D69D9
:1057B000A847D5E71EA8FDF717F9EAE62046FFF748
:1057C000E5F98046B9F1000F00F0D4804846FCF7B7
:1057D000A7FF169B1E90002B40F3C88000261FAB2E
:1057E000CDF834A00125B146DA461F46836832461B
:1057F000CDF87C9039465B699847149B04468342F8
:1058000031D0099B012B57D020B30D9B0B9603EB96
:10581000060B1F9801230C990A9A01FB008E099E22
:10582000139950440592224603915946CDF810E051
:1058300002960195009503F099F81F9B1E98394632
:105840001C440B9A83681F945B69984704460028A0
:10585000DFD10B9E139B01369844169BB34240F355
:1058600085801E98C2E7CDF82C80B346984600E0AC
:10587000A3461E980BF101043946836822465B69F2
:1058800098478045F4D00A9AC6EB0B03DDF82C80CC
:105890005046059201330D9ACDF810809119139E50
:1058A000099A039602920195149A06FB03880095C3
:1058B000264603F05BF8D0E70028CBD00D9B0B9673
:1058C00003EB060BDDF87CE022460A9E01230EF076
:1058D00007005946059606900AEB0E00BEF1000F30
:1058E000139E0295B8BF0EF1070E0396019508EBC3
:1058F000EE0E0095CDF810E003F0CAFF1F9B1E9836
:1059000039461C440B9A83681F945B699847044688
:105910000028D7D19DE7A1460125099E0123022F2A
:1059200051460A9A58460AEB030E00F0A981042F4B
:1059300000F07D819F4200F052810B9CF246CDF831
:1059400014900294209CCDF80C900195009504943D
:1059500003F00CF8013EE1D10D98FDF745F820A8C1
:10596000FDF742F80E98FCF78FFC24E51EA8FDF722
:105970003BF820E501240A9B139A099905930490AA
:105980005846039202915146169B149A0194009432
:1059900002F0ECFF0FE50E9A012418330025039264
:1059A000514604935846099BCDF808900A9A0595EC
:1059B0000194009402F0DAFFFDE40125DDF828905F
:1059C000099E0123022F51464A4658460AEB030E10
:1059D00000F0D480042F00F0A0809F426DD00024FE
:1059E00001950095F246059403940B9C0294209C2B
:1059F000049402F0BBFF013EE3D146E6FCF790FEC3
:105A00001F9000283FF441AE0A9A0124CDF828B037
:105A10004FEA420990460C95CDF83C90B146DDF82E
:105A200038B017E0042F2ED0012F28D00B9B002078
:105A3000209D5146029301230590424603909A44CB
:105A4000019400940A98049502F090FF099B013B91
:105A500009932BD0022FE5D1209B1E463B464246A0
:105A60001F995846D9F81450A8470F9D31463B4618
:105A7000AB440C9D42461F982D69A847D6E7209B52
:105A80001E460223EBE7209B42460F9E58461D46CA
:105A90001F990223B344D9F81460B04729460C9DDE
:105AA0003B4642461F982D69A847BFE71FA8FCF751
:105AB0009BFF1198FCF7E8FBE7E50A9B4446099633
:105AC0005D000C9E0C95209DDDF83880DDF8289057
:105AD00038F8020BA047B047B9F1010905F8010BEE
